S00C00006D61696E2E7372656373
S11300000C942A000C9447000C9447000C9447006D
S11300100C94230D0C9447000C9447000C94470057
S11300200C9447000C9447000C9447000C94470030
S11300300C9447000C9447000C9447000C94470020
S11300400C9447000C9447000C9447000C94470010
S11300500C94470011241FBECFE5D8E0DEBFCDBF0E
S113006015E0A0E6B0E0EAEAFDE102C005900D92D9
S1130070A03CB107D9F726E0A0ECB5E001C01D9281
S1130080A234B207E1F70E94D40D0C94D30E0C9461
S11300900000089768F477236CF06830710564F405
S11300A0552364F081E0483051054CF080E0089518
S11300B080E0089580E0089580E0089580E0089548
S11300C0FF920F931F93CF93DF93F82EEB018A01D6
S11300D00E9449008823B1F0000F111F000F111F67
S11300E0000F111FC00FD11FC050DA4F488121E00B
S11300F030E0C90102C0880F991FFA94E2F7809595
S113010084238883DF91CF911F910F91FF900895ED
S1130110FF920F931F93CF93DF93F82EEB018A0185
S11301200E9449008823A9F0000F111F000F111F1E
S1130130000F111FC00FD11FC050DA4F488121E0BA
S113014030E0C90102C0880F991FFA94E2F7842BAA
S11301508883DF91CF911F910F91FF900895FF92B3
S11301600F931F93CF93DF93F82EEB018A010E9424
S113017049008823A1F0000F111F000F111F000F69
S1130180111FC00FD11FC050DA4F288130E0C901C0
S113019002C095958795FA94E2F7817001C080E0DA
S11301A0DF91CF911F910F91FF9008952130310578
S11301B019F40E94880008950E9460000895681749
S11301C079072CF4F82FE92FCB016F2F7E2FFA013A
S11301D091838083F9017183608308958830910548
S11301E090F4FC01EE0FFF1FEE0FFF1FEE0FFF1F39
S11301F0E050FA4F8FEF80838183828383838483EB
S113020085838683878308958830910530F521E0BE
S113021030E001C0220F8A95EAF7B22F40E050E0A7
S113022060E070E011C0F901E80FF91FE050FA4FE7
S1130230A081AB2BA083019688309105A1F74F5F75
S11302405F4F4830510549F0CB019A01220F331F0B
S1130250220F331F220F331FE6CF089588309105F4
S113026060F4FC01E050FA4F8FEF80838087808B2D
S1130270808F80A380A780AB80AF0895893749F031
S11302808A3761F0883771F4862F90E00E94040168
S11302900895862F90E00E942E010895862F90E005
S11302A00E94EE00089520E030E0F901EE0FFF1FF8
S11302B0EE0FFF1FEE0FFF1FE050FA4F8083818384
S11302C08283838384838583868387832F5F3F4FE1
S11302D02830310551F708956F5F7F4F2FEF30E0DD
S11302E0A90102C0440F551F6A95E2F7BA0160954F
S11302F0A90102C0440F551F8A95E2F7CA0186235B
S11303000895EF92FF920F931F93CF93DF93CDB78E
S1130310DEB72C970FB6F894DEBF0FBECDBF9A831D
S113032089837C836B835E834D83622F732F38872D
S11303302F831A870987FC86EB869E01295F3F4F2E
S1130340AE014F5F5F4F0E94DF0069857A859E0191
S1130350275F3F4FAE014D5F5F4F8B819C810E94B1
S1130360DF006B857C859E01255F3F4FAE014B5FAF
S11303705F4F8D819E810E94DF00ED80FE800B81A6
S11303801C816F81788589819A810E946C01A70103
S1130390440F551F440F551F440F551FFA01E00F1A
S11303A0F11FE050FA4F808329853A85420F531F8D
S11303B0FA01E050FA4F80834B855C85440F551F4A
S11303C0440F551F440F551FFA01E00FF11FE05071
S11303D0FA4F8083420F531FFA01E050FA4F808393
S11303E0201731071CF14D815E81B80189819A8102
S11303F00E9488004B855C85B80189819A810E949E
S113040088004D815E81B8018F8198850E948800A3
S11304104B855C85B8018F8198850E9488000F5FA9
S11304201F4F89859A8580179107ECF60D811E81EF
S11304308B859C85801791071CF16B817C81A801B9
S113044089819A810E94880069857A85A8018981B9
S11304509A810E9488006B817C81A8018F81988594
S11304600E94880069857A85A8018F8198850E94F9
S113047088000F5F1F4F8B859C8580179107ECF6D2
S11304802C960FB6F894DEBF0FBECDBFDF91CF918F
S11304901F910F91FF90EF900895282F30E0E82FDF
S11304A0E295E695E770E270982F991F9927991FB6
S11304B0E92B982F9695969596959470E92B8695A9
S11304C088708E2BF901EE0FFF1FE071E82BB90144
S11304D0660F771F660F771F660F771F60726E2B8C
S11304E0A901440F551F42955295507F5427407FD0
S11304F054274074842F862B3695322F2227379524
S11305002795822B0895009759F408950000000060
S113051000000000000000002150C1F7019711F015
S11305202AE5F4CF08952F923F924F925F926F92F3
S11305307F928F929F92AF92BF92CF92DF92EF926F
S1130540FF921F93CF93DF93182F5B01C12CD12C03
S11305500F2EF7E08F2E912CF02D412C512C4FEFC4
S1130560A416B40621F07401EC18FD0801C076014C
S113057097012F5F3F4FC70101974FEFA416B406B1
S113058019F4622E732E02C0682E792E212C312C80
S11305903AC01A3771F4462D572DBE01C1010E948D
S11305A0AF00282F30E0A701BE01C1010E94D60090
S11305B01FC0193771F4AE01662D772DC1010E9459
S11305C0AF00282F30E0AE01B701C1010E94D60070
S11305D00FC0183769F4A101BE01862D972D0E9422
S11305E0AF00282F30E0A101BE01C7010E94D60050
S11305F02196C830D10569F68FEF281A380A48E0E9
S11306002416310419F0C42DD52DC3CF8FEFC81A89
S1130610D80A48E0C416D10409F0A1CFAB20A094B5
S113062031F40F2EF7E0EF2EF12CF02D02C0E12C67
S1130630F12CA12CB12CC12CD12C22C01A3731F4AD
S1130640A701BE01C5010E9460000FC0193731F433
S1130650AE01B701C5010E94600007C0183729F434
S1130660A501BE01C7010E9460002196C830D105D2
S113067029F74FEFA41AB40A88E0A816B10411F0C0
S1130680E601DCCFDF91CF911F91FF90EF90DF90D7
S1130690CF90BF90AF909F908F907F906F905F901E
S11306A04F903F902F9008954F925F926F927F9258
S11306B08F929F92AF92BF92CF92DF92EF92FF926E
S11306C00F931F93CF93DF93CDB7DEB7C054D109F7
S11306D00FB6F894DEBF0FBECDBF80E4E0E0F6E0D5
S11306E0DE01119601900D928A95E1F780E00E9457
S11306F05301812C912C0F2EF7E06F2E712CF02DCD
S1130700A12CB12C27C0802F912FF701208130E03C
S1130710002E02C0359527950A94E2F720FF05C004
S1130720442D552DB6010E9488000F5F1F4F0830DD
S1130730110549F7FFEFEF1AFF0A81E0C81AD10843
S113074010F08501E0CFEFEF8E1A9E0AF8E08F16C5
S1130750910489F0482C592C7401EE0CFF1CEE0C0A
S1130760FF1CEE0CFF1C81E090E08C0F9D1FE80E37
S1130770F91E6301E6CFC05CDF4F0FB6F894DEBF0D
S11307800FBECDBFDF91CF911F910F91FF90EF90DE
S1130790DF90CF90BF90AF909F908F907F906F909D
S11307A05F904F9008958F929F92AF92BF92CF9295
S11307B0DF92EF92FF920F931F93CF93DF93CDB706
S11307C0DEB7C054D1090FB6F894DEBF0FBECDBF5B
S11307D080E4E0E0F6E0DE01119601900D928A9546
S11307E0E1F780E00E945301A12CB12C812C912CC3
S11307F017C0F70181917F010E944D02F601E00FBD
S1130800F11FE050FA4F80830F5F1F4F083011052E
S113081081F7FFEFAF1ABF0A88E0A816B104B1F060
S11308207501EE0CFF1CEE0CFF1CEE0CFF1CE1E04E
S1130830F0E0EC0FFD1FEE0EFF1E84016501CC0CF1
S1130840DD1CCC0CDD1CCC0CDD1CD3CFC05CDF4F1D
S11308500FB6F894DEBF0FBECDBFDF91CF911F91CD
S11308600F91FF90EF90DF90CF90BF90AF909F904B
S11308708F9008951F93CF93DF93CDB7DEB7C05405
S1130880D1090FB6F894DEBF0FBECDBF80E4E0E01F
S1130890F6E0DE01119601900D928A95E1F740E0B1
S11308A050E067E070E015C01081DC01AA0FBB1FA7
S11308B0AA0FBB1FAA0FBB1FA20FB31FA050BA4F92
S11308C01C933896019780F74F5F5F4F483051056E
S11308D049F09A01E1E0F0E0EC0FFD1FE40FF51F91
S11308E0CB01E2CFC05CDF4F0FB6F894DEBF0FBE82
S11308F0CDBFDF91CF911F9108952F923F924F92D8
S11309005F926F927F928F929F92AF92BF92CF929B
S1130910DF92EF92FF920F931F93CF93DF93CDB7A4
S1130920DEB727970FB6F894DEBF0FBECDBF482EB3
S1130930592E66246394712C6894CC24C7F8D12C66
S1130940812C912C0F2EF7E02F2E312CF02D3CC052
S1130950BE016F5F7F4F0E949A0BEE24E394F12C4B
S1130960EC0EFD1E530122C09601002E02C03595E7
S113097027950A94E2F7F701808190E0822393237C
S1130980892B29F0A801B401C5010E9488000F5FDA
S11309901F4F0830110541F7FFEFAF1ABF0A8FEF61
S11309A0E81AF80AE8E0AE16B10411F08401DCCFCD
S11309B0810180ED97E00E948302B30189E70E94E0
S11309C0930201501109A9F7F20181912F018111BC
S11309D0BFCF08E010E088EE93E00E94830261E05C
S11309E070E089E70E94930201501109A1F727964C
S11309F00FB6F894DEBF0FBECDBFDF91CF911F912C
S1130A000F91FF90EF90DF90CF90BF90AF909F90A9
S1130A108F907F906F905F904F903F902F900895AC
S1130A20EF92FF920F931F93CF93DF93E82EC0E0D2
S1130A30162FD72F80E00E9453016C2F8E2D0E9419
S1130A403E01012FFD2E812F9D2F0E948302CF5F37
S1130A50C83081F7C7E080E00E9453016C2F8E2DCF
S1130A600E943E01802F9F2D0E948302C15098F75F
S1130A70DF91CF911F910F91FF90EF9008956F92A6
S1130A807F928F929F92AF92BF92CF92DF92EF921A
S1130A90FF920F931F93CF93DF9380E00E94530143
S1130AA06894882481F8912C0F2EFEEE6F2EF2E0CC
S1130AB07F2EF02D0F2EFAE0CF2ED12CF02D08EE44
S1130AC013E00F2EF1EFEF2EFF24FA94F02D0F2EEA
S1130AD0FFEEAF2EF2E0BF2EF02D42C080E00E9468
S1130AE05301CE010E9483028FEF0E94530184E6DA
S1130AF090E00E948302CE01B6010E94ED0DC80170
S1130B000E94ED0DC701861B970BC80FD91F1C1639
S1130B101D0624F3C8010E948302E30180E00E94C1
S1130B205301C5018C1B9D0B0E9483028FEF0E9411
S1130B30530184E690E00E948302CE01B6010E9434
S1130B40ED0DC8010E94ED0DC701861B970BC80F60
S1130B50D91F1C161D0614F381E0881A910811F0A0
S1130B60E301BCCFDF91CF911F910F91FF90EF90E4
S1130B70DF90CF90BF90AF909F908F907F906F90B9
S1130B8008952F923F924F925F926F927F928F922D
S1130B909F92AF92BF92CF92DF92EF92FF920F9308
S1130BA01F93CF93DF9300D000D000D0CDB7DEB732
S1130BB09C838B835B012A014901181619060CF4E6
S1130BC054C063C02D813E812830310544F40F2E7A
S1130BD0F7E06F2E712CF02D621A730A05C06D8038
S1130BE07E8038E0631A710880E00E94530181E03E
S1130BF090E00E948302F894730183019301A6019B
S1130C00B601C6010E9481011414150414F40E9453
S1130C103A0481E0A816B10421F093E0A916B104C6
S1130C2011F40E945403E2E02E16310410F40E94E1
S1130C30D3037894C4010E94830280E00E9453018C
S1130C402D813E812F5F3F4F3E832D83203131051F
S1130C5009F0B8CF89819A8101969A838983EB81BF
S1130C60FC818E179F0749F410C01A821982C12C87
S1130C70D12C1B01F2E02F1A3108DE82CD820F2E17
S1130C80F7E06F2E712CF02DAFCF26960FB6F894A7
S1130C90DEBF0FBECDBFDF91CF911F910F91FF90AB
S1130CA0EF90DF90CF90BF90AF909F908F907F9008
S1130CB06F905F904F903F902F9008958F929F92E6
S1130CC0AF92BF92CF92DF92EF92FF920F931F9356
S1130CD0CF93DF935C016B0180E00E945301C0E07D
S1130CE0D0E00F2EF3E08F2E912CF02D1C141D0458
S1130CF024F4C4018C1B9D0B01C0CE019401281B5C
S1130D00390B049679018901AC01BC010E9481016F
S1130D10C5010E94830280E00E9453012196C430E1
S1130D20D10521F7DF91CF911F910F91FF90EF90A3
S1130D30DF90CF90BF90AF909F908F9008957F9257
S1130D408F929F92AF92BF92CF92DF92EF92FF92D7
S1130D500F931F93CF93DF93882E962E742E7901D1
S1130D60C0E0D0E00F2EF7E0AF2EB12CF02D689448
S1130D70CC24C3F8D12C87E078120DC085010C1B5C
S1130D801D0BA6014C1B5D0B692D70E0882D90E0B6
S1130D900E9460000AC0AE0141505109692D70E003
S1130DA0882D90E00E9460008E01A801692D70E0FA
S1130DB0882D90E00E948800C7010E94830221963A
S1130DC0C830D105C1F6DF91CF911F910F91FF90EB
S1130DD0EF90DF90CF90BF90AF909F908F907F90D7
S1130DE008958F929F92AF92BF92CF92DF92EF922B
S1130DF0FF920F931F93CF93DF937C014B015A0112
S1130E0080E00E94530100E010E0C12CD12C20C0EE
S1130E100E94660E81709078992324F401978E6F56
S1130E209F6F0196AC01440F551F440F551F440F8B
S1130E30551F481B590BBE01C8010E94880021960A
S1130E40C830D10529F70F5F1F4F0830110511F085
S1130E50E601DECF1E141F040CF041C010E000E0D8
S1130E60D12C0E94660EEC010E94660E8770907869
S1130E70992324F40197886F9F6F0196AC01C82EC3
S1130E80801739F1CE0187709078992324F4019763
S1130E90886F9F6F0196C82F8D15D9F0BA017727F7
S1130EA040E050E090E00E94AF00882339F09401C4
S1130EB040E06C2D8C2F0E949F0606C0940147E0F1
S1130EC06C2D8C2F0E949F06C5010E9483020C2D5D
S1130ED0DC2E1F5F812F90E08E159F0514F2DF91A9
S1130EE0CF911F910F91FF90EF90DF90CF90BF9023
S1130EF0AF909F908F9008958F929F92AF92BF92E0
S1130F00CF92DF92EF92FF920F931F93CF93DF93D1
S1130F107C01EB016130710521F480E00E945301F2
S1130F2056C08FEF0E94530152C00E94660E877014
S1130F309078992324F40197886F9F6F0196C82EA7
S1130F40D92E0E94660E87709078992324F4019715
S1130F50886F9F6F0196A82EB92E0E94660E877027
S1130F609078992324F40197886F9F6F0196882EB7
S1130F70992E209759F4482F592F6A2D7B2D8C2DAB
S1130F809D2D0E94AF008130E1F40DC0C130D10528
S1130F90C1F4482F592F6A2D7B2D8C2D9D2D0E9435
S1130FA0AF0081110EC09E01482D592D6A2D7B2D55
S1130FB08C2D9D2D0E94D600C7010E9483020F5FD5
S1130FC01F4F0F3F81E018070CF4AFCF03C000E0C0
S1130FD010E0ABCFDF91CF911F910F91FF90EF9075
S1130FE0DF90CF90BF90AF909F908F9008958F9295
S1130FF09F92AF92BF92CF92DF92EF92FF920F93A4
S11310001F93CF93DF935C01181619060CF043C0AD
S1131010C12CD12C812C912C0E94660E8370907867
S1131020992324F401978C6F9F6F01967C01181605
S1131030190614F5E4010E94660E8C010E94660EE6
S1131040BC0167707078772334F461507109686F5C
S11310507F6F6F5F7F4FC80187709078992324F466
S11310600197886F9F6F019647E050E00E948800C7
S11310702196CE15DF05F9F688EE93E00E948302EF
S11310806FEF7FEF8AE70E9493028FEFC81AD80AA6
S1131090CA14DB0409F6DF91CF911F910F91FF90E1
S11310A0EF90DF90CF90BF90AF909F908F90089576
S11310B06F927F928F929F92AF92BF92CF92DF9264
S11310C0EF92FF921F93CF93DF93182FD62FC72F42
S11310D03A0180E00E9453018D2E9C2EE12CF12CCC
S11310E0A12CB12C0F2EF7E0CF2ED12CF02D35C032
S11310F06114710449F0F401EC0FFD1F8081960125
S1131100281B3109C90105C0F401EC0FFD1F8081C2
S113111090E01A3731F4AC01BE01C7010E94880087
S11311200EC0193731F4AE01BC01C7010E9488001A
S113113006C0183721F4A701BE010E948800219639
S1131140C830D105A9F63FEFE31AF30A88E0880E08
S1131150911C28E0E216F10411F0E501C9CFDF91FA
S1131160CF911F91FF90EF90DF90CF90BF90AF9001
S11311709F908F907F906F9008953F924F925F92CF
S11311806F927F928F929F92AF92BF92CF92DF9293
S1131190EF92FF920F931F93CF93DF93CDB7DEB7F8
S11311A0C658D1090FB6F894DEBF0FBECDBF982E36
S11311B0862E772ECB57DF4F59834883C558D040AE
S11311C05901CE010196CD57DF4F99838883C358C7
S11311D0D040DE01AF5BBF4FCF57DF4FB983A88349
S11311E0C158D0408D016D017C01F70111927F013E
S11311F00E94660E87709078992324F40197886F73
S11312009F6F0196D6018D936D01E016F10669F783
S11312106894EE24E3F8F12CCF57DF4F3880C1589F
S1131220D040CE57DF4F4880C258D040CD57DF4F13
S11312305880C358D040CC57DF4F6880C458D04042
S1131240C82CD72C1BC080819D91891710F48F5F07
S113125080833196E017F107B1F7A501BE016F5FF6
S11312607F4F892D0E9458088C2C7D2C8C2D9D2D10
S11312700E948302B1E0EB1AF10829F0A32DB42DEA
S1131280E52DF62DE0CFCE018F579F4FFE01EF5B8A
S1131290FF4F27E02193E817F907E1F7CB57DF4F1A
S11312A088819981C558D0400E9483026894EE24B5
S11312B0E3F8F12CCF57DF4FC880C158D040CE5748
S11312C0DF4F6880C258D040CD57DF4F5880C35895
S11312D0D040CC57DF4FD880C458D04022C0AF0193
S11312E03081DC012D91CD01321710F43F5F308342
S11312F0DA013C91231710F431503C933196E017F6
S1131300F10769F7A501BE016F5F7F4F892D0E9428
S11313105808882D972D0E948302B1E0EB1AF1083A
S113132029F08C2D962DE52DFD2DD9CFCA57DF4FF1
S11313300FB6F894DEBF0FBECDBFDF91CF911F91E2
S11313400F91FF90EF90DF90CF90BF90AF909F9060
S11313508F907F906F905F904F903F9008950F9380
S11313601F93CF93DF93E82FF92FA62FB72F20E0F9
S113137030E0BF011081AD010C91101710F41F5F14
S11313801083EB0118811196EA014881411718F482
S11313901150EB0118832F5F3F4F319620343105F4
S11313A041F740E050E0682F792F8AE70E945808FF
S11313B0DF91CF911F910F9108952F923F924F92F9
S11313C05F926F927F928F929F92AF92BF92CF92D1
S11313D0DF92EF92FF920F931F93CF93DF93CDB7DA
S11313E0DEB7C058D1090FB6F894DEBF0FBECDBF2B
S11313F04C011B018E010F5F1F4F7E0121E4E20EA1
S1131400F11C67016894BB24B2F8F801B1928F0112
S11314100E94660E87709078992324F40197886F50
S11314209F6F0196F70181937F010C151D0569F7E4
S113143008E010E0E22CF32C4AE7BE016F5B7F4F1B
S1131440CE0101960E94AF097E2C6F2C8E2D9F2D0C
S11314500E9483020150110979F7181419040CF041
S11314604DC0220C331C220C331CA12CB12C6E0158
S1131470F1E4CF0ED11C4C2C5D2C3DC04AE7642D09
S1131480752DCE0101960E94AF09872D962D0E94DD
S113149083020150110991F7C1010E94830200E205
S11314A010E00E94660E7C010E94660E2FE3E22289
S11314B020E8F222FF2054F4E1E0EE1AF108F0EC07
S11314C0EF2AFF24FA942FEFE21AF20AF601EE0D46
S11314D0FF1D87709078992324F40197886F9F6F7C
S11314E00196808301501109E1F68FEFA81AB80A1A
S11314F0A814B90419F008E010E0C0CFC058DF4FB9
S11315000FB6F894DEBF0FBECDBFDF91CF911F9110
S11315100F91FF90EF90DF90CF90BF90AF909F908E
S11315208F907F906F905F904F903F902F90089591
S11315302F923F924F925F926F927F928F929F92DF
S1131540AF92BF92CF92DF92EF92FF920F931F93CD
S1131550CF93DF93CDB7DEB766970FB6F894DEBFAF
S11315600FBECDBF9A8789871B015E874D87388B55
S11315702F871A8B098B4F3F5F4F19F0812C912CC9
S113158005C00F2EF7E08F2E912CF02D89E090E00E
S1131590AC01A985BA854A1B5B0B5C874B870E940B
S11315A0660E6B857C850E94ED0D9C838B830E9467
S11315B0660E6B857C850E94ED0D9E838D83EF8581
S11315C0F8891E161F060CF09CC018861F822985F8
S11315D03A853C8B2B8B0E94660E8C010E94660E12
S11315E063E070E00E94ED0DFC013197C80163E0F7
S11315F070E00E94ED0D9C01215031094B815C810A
S1131600240F351F121613063CF48B859C8528176E
S1131610390714F43C832B838D819E818E0F9F1F89
S1131620181619063CF4AB85BC858A179B0714F47D
S11316309E838D836D857E85822D0E949302E9852C
S1131640FA851E161F060CF04DC08B819C812F015C
S1131650480E591E7C016D807E8083012B893C8954
S1131660020F131F5C01A618B708A301481B590BEE
S11316705A83498330C05AE72516310439F4A4014A
S11316806D897E89C7010E94880017C089E72816E2
S1131690310439F44D895E89B401C7010E94880080
S11316A00CC098E72916310441F44D895E894A0D2E
S11316B05B1DB601C4010E948800AD89BE891196E4
S11316C0BE8BAD8BA017B107B1F6BFEFEB1AFB0AC7
S11316D0E414F50439F07E8A6D8AC980DA80CE0C70
S11316E0DF1CC9CF89899A890E948302EF81F8851A
S11316F03196F887EF832F853889E217F30709F0CD
S11317006ACF66960FB6F894DEBF0FBECDBFDF91E9
S1131710CF911F910F91FF90EF90DF90CF90BF90EA
S1131720AF909F908F907F906F905F904F903F907D
S11317302F9008958052282F30E0C901880F991FF7
S1131740880F991F880F991F821B930B262F372F01
S1131750F90140E0821B930BDC01AE0FBF1FAC59B3
S1131760BF4F2C9121934F5F4730B1F708950F93EA
S11317701F93CF93DF93EC0180E00E945301C530A7
S1131780D10509F4BDC094F4C230D10591F134F40B
S1131790209709F1219709F04EC122C0C330D10529
S11317A009F440C0249709F046C185C0C830D1056A
S11317B009F4E3C044F4C630D10509F4A4C0279762
S11317C009F039C1D3C0C930D10509F4E3C02A975F
S11317D009F031C128C189EB95E00E947D042EC136
S11317E040ED57E06CED70E084E190E00E94F1067A
S11317F025C161E070E085E090E00E947C0760E034
S113180070E085E090E00E947C0761E070E085E094
S113181090E00E947C0760E070E085E090E00E9428
S11318207C070CC160E070E080E293E00E945E06F9
S113183061E070E080E293E00E945E0660E070E0A8
S113184080E293E00E945E0661E070E080E293E053
S11318500E945E0660E070E080E293E00E945E0613
S113186061E070E080E293E00E945E0660E070E078
S113187080E293E00E945E0661E070E080E293E023
S11318800E945E0660E070E080E293E00E945E06E3
S113189061E070E080E293E00E945E0660E070E048
S11318A080E293E00E945E0661E070E080E293E0F3
S11318B00E945E06C3C060E971E08AE790E00E947E
S11318C0100560E971E088E790E00E94100560E986
S11318D071E089E790E00E94100560E971E08AE711
S11318E090E00E94100560E971E088E790E00E94B2
S11318F0100560E971E089E790E00E9410059EC040
S11319000E943F059BC0C0E0D0E0AE014470552763
S1131910BE0163707078772334F4615071096C6F81
S11319207F6F6F5F7F4F22EC31E081E090E00E9497
S1131930C1052196C830D10541F760E070E080E22E
S113194093E00E945E0661E070E080E293E00E9412
S11319505E0660E070E080E293E00E945E0661E073
S113196070E080E293E00E945E0668C068EE73E077
S113197084E190E00E94DD0961C008EE13E024E6F2
S113198030E04FEF5FEF6AE770E081E090E00E94A3
S1131990980A54C020E030E048E853E166E272E07F
S11319A08AE70E94BD0821E030E048E853E166E29E
S11319B072E08AE70E94BD0820E030E048E853E185
S11319C066E272E08AE70E94BD0821E030E048E860
S11319D053E166E272E08AE70E94BD0820E030E04D
S11319E048E853E166E272E088E70E94BD0821E01E
S11319F030E048E853E166E272E088E70E94BD08FF
S1131A0020E030E048E853E166E272E089E70E94B2
S1131A10BD0821E030E048E853E166E272E089E77E
S1131A200E94BD080BC084E690E00E94F70780E0A6
S1131A300E94530103C080E00E945301DF91CF91C3
S1131A401F910F9108951F920F920FB60F921124B8
S1131A502F933F938F939F93EF93FF9315BAC39A5A
S1131A6080E090E020914106FC0138E0239FE00DE6
S1131A70F11D1124E050FA4F20812BBB28B3382FDD
S1131A803F5F3770287F232B28BB01968830910550
S1131A9049F7C3982091410681E090E002C0880F85
S1131AA0991F2A95E2F785BB809141068F5F809349
S1131AB0410680914106883011F410924106FF914D
S1131AC0EF919F918F913F912F910F900FBE0F90A7
S1131AD01F9018958FEF8ABB9FEE97BB84BB8FED49
S1131AE081BB1BBA15BA80E188BB80E282BB8AE065
S1131AF083BD8DE085BD14BC80E889BF10BC8FE533
S1131B0089B986E880BD88E18AB91CB80895CF9365
S1131B10DF93939AC0E0D0E02196CE010E946B0E31
S1131B2080E197E20E9483029398929A859B0FC06A
S1131B30B49B10C088EE93E00E9483029298939A1B
S1131B40859B0BC0B499E8CF21E030E008C022E0C7
S1131B5030E005C021E030E002C022E030E0822F16
S1131B60932FDF91CF9108950F2EFCE3FF2EF02DDC
S1131B7000E010E0F2BA5F9BFECF2CB1822F90E020
S1131B802CB98130910549F4E801CE010E94B70BCC
S1131B902196CB30D105C9F7EDCF029759F785E1EE
S1131BA090E00E94B70BE6CF0E946A0D81E080931B
S1131BB041060E94870D7894029711F40E94B40D97
S1131BC0C0E0D0E000E010E0CE010E94B70B219607
S1131BD0CB30D105CCF3E801F7CF97FB072E16F4F1
S1131BE0009407D077FD09D00E94010E07FC05D0B0
S1131BF03EF4909581959F4F0895709561957F4F20
S1131C000895AA1BBB1B51E107C0AA1FBB1FA6173F
S1131C10B70710F0A61BB70B881F991F5A95A9F791
S1131C2080959095BC01CD0108958F929F92AF92BB
S1131C30BF92CF92DF92EF92FF92CF93DF93EC01AA
S1131C40688179818A819B8161157105810591057E
S1131C5021F464E279ED8BE597E02DE133EF41E087
S1131C6050E00E94760E49015A019B01AC01A7EA9B
S1131C70B1E40E94920E6B017C01ACEEB4EFA501BD
S1131C8094010E94A00EC60ED71EE81EF91EF7FE90
S1131C9006C081E0C81AD108E10880E8F80AC882C1
S1131CA0D982EA82FB82E894D7F8EE24FF24C601A5
S1131CB0DF91CF91FF90EF90DF90CF90BF90AF90E6
S1131CC09F908F9008950E94150E089580E690E0ED
S1131CD00E94150E0895A0E0B0E0809360009093F8
S1131CE06100A0936200B09363000895052E97FBF2
S1131CF016F4009407D057FD0DD00E94A50E07FCE2
S1131D0009D07EF490958095709561957F4F8F4FA3
S1131D109F4F089550954095309521953F4F4F4FD3
S1131D205F4F08950E94C70EA59F900DB49F900D1C
S1131D30A49F800D911D11240895B7FF0C94920E59
S1131D400E94920E821B930B0895A1E21A2EAA1BE5
S1131D50BB1BFD010DC0AA1FBB1FEE1FFF1FA21757
S1131D60B307E407F50720F0A21BB30BE40BF50B54
S1131D70661F771F881F991F1A9469F760957095DD
S1131D80809590959B01AC01BD01CF010895A29F60
S1131D90B001B39FC001A39F01D0B29F700D811DFC
S10D1DA01124911D0895F894FFCF5B
S1131DAA010000000000000000000000FBFB00002E
S1131DBA000000030003000000147F147F140000D5
S1131DCA242A7F2A12000023130864620000364979
S1131DDA552250000000050300000000001C2241A7
S1131DEA0000000041221C00000014083E081400F0
S1131DFA0008083E080800000050300000000008EF
S1131E0A08080808000000606000000000201008AC
S1131E1A040200003E5149453E000000427F400052
S1131E2A0000426151494600002141454B310000FE
S1131E3A1814127F100000274545453900003C4A12
S1131E4A494930000001710905030000364949492E
S1131E5A360000064949291E0000003636000000F3
S1131E6A0000563600000000081422410000001445
S1131E7A1414141400000041221408000002015131
S1131E8A09060000324979413E00003F4444443F78
S1131E9A00007F4949493600003E41414122000081
S1131EAA7F4141221C00007F4949494100007F09C2
S1131EBA09090100003E4149497A00007F080808DF
S1131ECA7F000000417F410000002040413F0100A3
S1131EDA007F0814224100007F4040404000007FF8
S1131EEA020C027F00007F0408107F00003E41417B
S1131EFA413E00007F0909090600003E4151215E66
S1131F0A00007F0919294600004649494931000061
S1131F1A01017F010100003F4040403F00001F20B3
S1131F2A40201F00003F4038403F0000631408145B
S1131F3A630000070870080700006151494543001F
S1131F4A00007F4141000000020408102000000044
S1131F5A41417F00000004020102040000404040A5
S1131F6A4040000000010204000000205454547848
S1131F7A00007F48444438000038444444200000A8
S1131F8A384444487F000038545454180000087EEA
S1131F9A09010200000C5252523E00007F08040458
S1131FAA78000000447D400000002040443D0000C9
S1131FBA007F10284400000000417F400000007C9C
S1131FCA0418047800007C080404780000384444A7
S1131FDA443800007C141414080000081414187CF3
S1131FEA00007C08040408000048545454200000EB
S1131FFA043F44402000003C4040207C00001C2058
S113200A40201C00003C4030403C0000442810287A
S113201A4400000C5050503C00004464544C4400AA
S113202A00000000000000000000000000000000A2
S113203A0000000000000000000000000000000092
S113204A0000000000000000000000000000000082
S113205A0000000000000000000000000000000072
S113206A0000000000000000000000000000000062
S113207A0000000000000000000000000000000052
S113208A0000000000000000000000000000000042
S113209A0000000000000000000000000000000032
S11320AA0000000000000000000000000000000022
S11320BA0000000000000000000000000000000012
S11320CA0000000000000000000000000000000002
S11320DA00000000000000000000000000000000F2
S11320EA00000000000000000000000000000000E2
S11320FA00000000000000000000000000000000D2
S113210A00000000000000000000000000000000C1
S113211A00000000000000000000000000000000B1
S113212A00000000000000000000000000000000A1
S113213A0000000000000000000000000000000091
S113214A0000000000000000000000000000000081
S113215A0000000000000000000000000000000071
S113216A0000000000000000000000000000000061
S113217A0000000000000000000000000000000051
S113218A0000000000000000000000000000000041
S113219A0000000000000000000000000000000031
S11321AA0000000000000000000000000000000021
S11321BA0000000000000000000000000000000011
S11321CA0000000000000000000000000000000001
S11321DA00000000000000000000000000000000F1
S11321EA00000000000000000000000000000000E1
S11321FA00000000000000000000000000000000D1
S113220A000000003F448484443F00FF919191916F
S113221A9F00FF9191F1111F00FF80808080C00010
S113222A033E4282FE0300FF89898989810081660F
S113223A18FF18668100428181916E00FF020C30FA
S113224A40FF00FF028CB040FF0000FF18244281C7
S113225A00013F408080FF00FF40300C3040FFFF08
S113226A08080808FF007E818181817E00FF808042
S113227A8080FF00FF88888888F800FF8181818137
S113228AC300C08080FF8080C0F209090909FF00E9
S113229A708888FF88887081661818668100FE0233
S11322AA0202FE0300F008080808FF00FF0101FF0C
S11322BA0101FFFE02FE02FE030080FF1111111F3D
S11322CA00FF1111111F00FF00FF1111111F00421D
S11322DA818989897E00FF08FF818181FFF19294B7
S11322EA98FF0000F9898A8CFF00000000000000B2
S11322FA000000000000000000CFD0C8C2C5D20010
S9030000FC
